:040000008231092A16
:100008007E14803120007F08F8000B1D052A170890
:10001800FA001608F900DF297A08803AF7007C0808
:10002800803A7702031D1A287B08790203183B28B7
:1000380020006408650403193728E401E5018531C7
:10004800E32580318531E92580317E3020009B0011
:100058001C30250093003F3091008531DA2580312E
:100068008531EC2580312000E001E1014B28013089
:100078002000E0070030E13D63086106031D4628C3
:1000880062086006031D4B288531C4258031200095
:100098001F08F83901389B297A08803AF7007C084C
:1000A800803A7702031D5A287B08790203187B28B7
:1000B80020006403650403197728E401E50185310C
:1000C800E32580318531E92580318D3020009B0082
:1000D8003C3025009300463091008531DA25803187
:1000E8008531EC2580312000E001E1018B280130C9
:1000F8002000E0070030E13D63086106031D862803
:1001080062086006031D8B288531C42580312000D4
:100118001F08F83902389B297A08803AF7007C08CA
:10012800803A7702031D9A287B0879020318BE28B3
:1001380002302000640665040319BA280230E4007E
:100148000030E5008531E32580318531E9258031AE
:100158009E3020009B001C30250093004F309100FA
:100168008531DA2580318531EC2580312000E001A8
:10017800E101CE2801302000E0070030E13D6308AE
:100188006106031DC92862086006031DCE28853153
:10019800C425803120001F08F83903389B297A08C4
:1001A800803AF7007C08803A7702031DDD287B0837
:1001B8007902031801290330200064066504031935
:1001C800FD280330E4000030E5008531E325803167
:1001D8008531E9258031B23020009B001C30250094
:1001E8009300593091008531DA2580318531EC252D
:1001F80080312000E001E101112901302000E007F1
:100208000030E13D63086106031D0C2962086006A1
:10021800031D11298531C425803120001F08F839B4
:1002280004389B297A08803AF7007C08803A7702DC
:10023800031D20297B087902031844290430200073
:1002480064066504031940290430E4000030E50021
:100258008531E32580318531E9258031BC302000A6
:100268009B001C30250093005E3091008531DA2513
:1002780080318531EC2580312000E001E1015429ED
:1002880001302000E0070030E13D63086106031DEE
:100298004F2962086006031D54298531C425803121
:1002A80020001F08F83905389B297A08803AF7009A
:1002B8007C08803A7702031D63297B0879020318BA
:1002C8008729053020006406650403198329053051
:1002D800E4000030E5008531E32580318531E925EA
:1002E8008031D43020009B001C30250093006A30F8
:1002F80091008531DA2580318531EC258031200067
:10030800E001E101972901302000E0070030E13DDC
:1003180063086106031D922962086006031D972978
:100328008531C425803120001F08F83906389F0020
:10033800EE297A08803AF7007C08803A7702031D94
:10034800A7297B0879020318CB2906302000640608
:1003580065040319C7290630E4000030E50085313B
:10036800E32580318531E9258031EE3020009B007E
:100378001C3025009300773091008531DA258031D3
:100388008531EC2580312000E001E101DB290130D5
:100398002000E0070030E13D63086106031DD6290F
:1003A80062086006031DDB298531C4258031F830D9
:1003B80020009F05EE295F08003A0319E429EE2979
:1003C8005E088400073004020318EE2985310435DD
:1003D800B63E82000730F0000030F1005E08013EB2
:1003E800F20000305F3DF30085314F257108200091
:1003F800DF007008DE0018109601950197011814A7
:100408000B117808FF007E10090082310B2AF901D0
:10041800FA01FB01FC01DE01DF01E001E1018531A8
:10042800DF258231E2008531E0258231E300853124
:10043800E1258231E4008531E225E5007E102000C7
:100448008331D02B20003B08C1003C08C2003D0886
:10045800C3000310420D430DC4004408C7003E0802
:10046800C1003F08C2004008C3000310420D430DFD
:10047800C4004408C600470803194E2A4608470224
:100488000318552A4703FF3A4607C10019304102AD
:10049800031C552A3E08BB003F08BC004008BD00AD
:1004A8000800460803190800470846020318642A8A
:1004B8004603FF3A4707C1001930410203180800F4
:1004C8000630C1004108C500BD1BC517C01B451734
:1004D800BC17FF30BB05FF30BC050030BD05BF179A
:1004E800FF30BE05FF30BF050030C0054608470293
:1004F8000318A02A0130BE35BF0DC00D890B7F2A15
:100508000130C6024608470603199B2A0130C50276
:100518004508073903199B2A7E2A0130BD36BC0CD1
:10052800BB0C890B922A0130C1004108C707470854
:1005380046060319C52A912A470846020318C52A00
:100548000130BB35BC0DBD0D890BA52A0130C70292
:10055800460847060319C12A0130C502450807396C
:100568000319C12AA42A0130C036BF0CBE0C890B5E
:10057800B82A0130C1004108C60747084606031DCE
:10058800B72AC51FD72AFF30BB06FF30BC06FF308D
:10059800BD060130BB07003003180130BC0700302E
:1005A80003180130BD07451FE92AFF30BE06FF309A
:1005B800BF06FF30C0060130BE0700300318013007
:1005C800BF07003003180130C007C5013B08BE074C
:1005D8003C08BF3D3D08C03DC01F042BFF30BE0690
:1005E800FF30BF06FF30C0060130BE0700300318D9
:1005F8000130BF07003003180130C007C501C50A24
:100608003E08A0003F08A1004008A2004708C1001A
:100618004108A3004508C2004208A4008431EA2426
:1006280020002008BB002108BC002208BD000800EB
:1006380020002808AE002908AF002A08B0000310DF
:100648002F0D300DB1003108B2003208031D332BD5
:100658000030A8000030A9000030AA0008002B08CC
:10066800AE002C08AF002D08B00003102F0D300D80
:10067800B1003108B7003708031D492B0030A80026
:100688000030A9000030AA00080037087B3EAE0001
:100698002E08B2072808AE002908AF002A08B000C3
:1006A8001030B036AF0CAE0C890B552B2E08B100AC
:1006B8003108B7002B08AE002C08AF002D08B00099
:1006C8001030B036AF0CAE0C890B652B2E08B1007C
:1006D8003108B7068030AE002E08B705A917AC1749
:1006E800FF30AB05FF30AC050030AD050030B3007E
:1006F8000030B4000030B5000730AE002E08B60058
:10070800281C8C2B2B08B3072C08B43D2D08B53DAD
:100718000130AA36A90CA80C890B8D2B0130AB35FA
:10072800AC0DAD0D890B932B0130B602031D842B44
:100738000930AE002E08B600281CA82B2B08B307DA
:100748002C08B43D2D08B53D0130AA36A90CA80CDB
:10075800890BA92B0130B536B40CB30C890BAF2B20
:100768000130B602031DA02B3308A0003408A100F5
:100778003508A2003208AE002E08A3003708AF00E3
:100788002F08A4008431EA2420002008A8002108AA
:10079800A9002208AA00080000302000DB00003071
:1007A800DC000030DD007830210099001A1EDA2BB9
:1007B80017308C00173023008C00073021008E0082
:1007C800073023008E0021009512951107309504FB
:1007D800C5302000980099011E131E08F339083807
:1007E8009E009E171F08F83902389F0018109601BE
:1007F8009501970118140B110B1D002C20001608E9
:10080800D600D7011708D800D9015808D900D8014F
:1008180056085807A8005708593DA900853194255E
:10082800833120002808DB002908DC002A08DD00C5
:100838005B08AB005C08AC005D08AD00CD30A800DB
:100848004C30A9003E30AA0083311C23833120009C
:100858002808B8002908B9002A08BA008531D12526
:10086800833120003808BE003908BF003A08C000AC
:100878005B08BB005C08BC005D08BD008231262215
:10088800833120003B08C8003C08C9003D08CA0065
:1008980084316324833120004908FC004808FB00A8
:1008A80007309C00FC3025009E052000181096019A
:1008B8009501970118140B118B168B17622C2000C9
:1008C8004808CC004908CD004A08CE0003104D0D59
:1008D8004E0DCF004F08D5005508031D7C2C003065
:1008E800CB000030CA000030C9000030C800080042
:1008F8004808CC004908CD004A08CE001730CE364B
:10090800CD0CCC0C890B832C4C08CF004F08D000A1
:10091800C917FF30C805FF30C9050030CA054808A7
:10092800D1004908D2004A08D300D4018E30D5023C
:10093800D51FBA2C5508803A8F3E0318AC2C0030CE
:10094800CB000030CA000030C9000030C8000800E1
:100958000130D436D30CD20CD10C890BAD2C01301C
:10096800CC004C08D5070319D32CAC2C18305502F1
:10097800031CD02C0030CB000030CA000030C90066
:100988000030C80008000130D135D20DD30DD40D88
:10099800890BC82C0130D5025508031DC72C5008F7
:1009A8000319E12CD109D209D309D409D10A0319B1
:1009B800D20A0319D30A0319D40A5408CB005308DE
:1009C800CA005208C9005108C800080020002308BE
:1009D8000319F32C220821042004031D042D0030E0
:1009E800A0000030A1000030A20008000130A500DE
:1009F8002508A3070130A236A10CA00C890BFF2CF7
:100A0800FE30220503191D2DFA2C0130A5002508FA
:100A1800A3070130A007003003180130A1070030F8
:100A280003180130A2070130A236A10CA00C890BD3
:100A3800182DFF30220503192A2D092D0130A30294
:100A48000130A035A10DA20D890B252DA11B302D3C
:100A5800023023020318222D2318382DFF30A00559
:100A68007F30A105FF30A2050310A30C2308A500C1
:100A7800A601A7011030A535A60DA70D890B3F2D9E
:100A88002508A0042608A1042708A204240803199D
:100A98000800A2170800F601F31F592DF209F309FF
:100AA800F20A0319F30AF601F60AF11F602DF0099C
:100AB800F109F00A0319F10A700871040319872D66
:100AC800F501F50AF11B722D0130F035F10D890B96
:100AD800692D0130F4007408F507662D710873025A
:100AE800031D782D70087202031C7E2D7008F20217
:100AF8007108F33B0130F136F00C890B7F2D013082
:100B0800F502031D722D760803198F2DF209F309DA
:100B1800F20A0319F30A7308F1007208F0000800DA
:100B28002000AD01A91F9F2DA809A909A80A03192A
:100B3800A90AAD01AD0A2808A0002908A100A20150
:100B48008E30AB002B08A3002D08AC002C08A400A5
:100B58008431EA2420002008A8002108A9002208DE
:100B6800AA00080080311028803150288031902850
:100B78008031D328813116298131592981319D2924
:100B88008531E62585318531E925FF302000E400EF
:100B9800FF30E500E001E101080020003A083904CF
:100BA8003804031908008030BA06080020009110A4
:100BB80091180800DC2D0D340034FF34FF34200078
:100BC8000E16080020000E12080021008E160800DC
:060BD80021008E1208004E
:020000040001F9
:02000E00E4CF3D
:00000001FF
